:020000040800F2
:1000000000000320A50500086D19000871190008FB
:10001000891900088B1900088D19000800000000DC
:1000200000000000000000000000000071D1000886
:100030008F1900080000000001D2000837CA00082C
:10004000F5050008F5050008F5050008F5050008A8
:10005000F5050008F505000891190008F5050008E8
:10006000F5050008F5050008F5050008F505000888
:10007000F5050008F5050008F5050008F505000878
:10008000F5050008F5050008F5050008F505000868
:10009000F5050008F5050008F5050008F505000858
:1000A000F5050008F5050008F5050008F505000848
:1000B000F5050008F5050008F5050008F505000838
:1000C000F5050008F5050008F5050008F505000828
:1000D000F5050008F5050008F5050008F505000818
:1000E000F5050008F5050008F5050008F505000808
:1000F000F5050008F5050008F5050008F5050008F8
:10010000F505000899190008F5050008F50500082F
:10011000F5050008F5050008A5190008F505000813
:10012000F5050008F5050008F5050008B1190008F7
:10013000F5050008F5050008F5050008F5050008B7
:10014000F5050008F5050008F5050008F5050008A7
:10015000F5050008F5050008F5050008F505000897
:10016000F5050008F5050008F5050008F505000887
:10017000F5050008F5050008F50500080000000079
:10018000F5050008F5050008F5050008F505000867
:10019000F5050008F5050008F5050008F505000857
:0C01A000BD190008F5050008C919000889
:1001B00010B5054C237833B9044B13B10448AFF3A1
:1001C00000800123237010BD880100200000000082
:1001D000F886020808B5034B1BB103490348AFF387
:1001E000008008BD000000008C010020F886020895
:1001F000034613F8012B002AFBD1181A0138704767
:1002000001F0FF01102A2BDB10F0070F08D010F8C7
:10021000013B013A8B422DD010F0070F42B3F6D1CB
:10022000F0B441EA012141EA014122F007047FF0E4
:1002300000070023F0E80256083C85EA010586EA3B
:10024000010685FA47F5A3FA87F586FA47F6A5FA77
:1002500087F68EB9EED1F0BC01F0FF0102F0070283
:1002600032B110F8013B013A83EA010313B1F8D12E
:100270000020704701387047002D06BF354603380F
:10028000073815F0010F07D1013015F4807F02BF48
:10029000013015F4C03F0130F0BC0138704700BF99
:1002A00053B94AB9002908BF00281CBF4FF0FF31DD
:1002B0004FF0FF3000F074B9ADF1080C6DE904CED9
:1002C00000F006F8DDF804E0DDE9022304B0704731
:1002D0002DE9F047089D04468E46002B4DD18A42F9
:1002E000944669D9B2FA82F252B101FA02F3C2F12C
:1002F000200120FA01F10CFA02FC41EA030E9440BD
:100300004FEA1C48210CBEFBF8F61FFA8CF708FBDD
:1003100016E341EA034306FB07F199420AD91CEBB5
:10032000030306F1FF3080F01F81994240F21C81E7
:10033000023E63445B1AA4B2B3FBF8F008FB10332F
:1003400044EA034400FB07F7A7420AD91CEB040464
:1003500000F1FF3380F00A81A74240F20781644434
:10036000023840EA0640E41B00261DB1D4400023B9
:10037000C5E900433146BDE8F0878B4209D9002D1D
:1003800000F0EF800026C5E9000130463146BDE8A7
:10039000F087B3FA83F6002E4AD18B4202D3824211
:1003A00000F2F980841A61EB030301209E46002DC0
:1003B000E0D0C5E9004EDDE702B9FFDEB2FA82F215
:1003C000002A40F09280A1EB0C014FEA1C471FFA73
:1003D0008CFE0126200CB1FBF7F307FB131140EA5A
:1003E00001410EFB03F0884208D91CEB010103F127
:1003F000FF3802D2884200F2CB804346091AA4B2E9
:10040000B1FBF7F007FB101144EA01440EFB00FEBC
:10041000A64508D91CEB040400F1FF3102D2A64521
:1004200000F2BB800846A4EB0E0440EA03409CE7C0
:10043000C6F12007B34022FA07FC4CEA030C20FA6D
:1004400007F401FA06F31C43F9404FEA1C4900FA8D
:1004500006F3B1FBF9F8200C1FFA8CFE09FB18110A
:1004600040EA014108FB0EF0884202FA06F20BD97D
:100470001CEB010108F1FF3A80F08880884240F2CD
:100480008580A8F102086144091AA4B2B1FBF9F011
:1004900009FB101144EA014100FB0EFE8E4508D90C
:1004A0001CEB010100F1FF346CD28E456AD9023891
:1004B000614440EA0840A0FB0294A1EB0E01A14276
:1004C000C846A64656D353D05DB1B3EB080261EBE4
:1004D0000E0101FA07F722FA06F3F1401F43C5E9BE
:1004E000007100263146BDE8F087C2F12003D840F4
:1004F0000CFA02FC21FA03F3914001434FEA1C4736
:100500001FFA8CFEB3FBF7F007FB10360B0C43EA27
:10051000064300FB0EF69E4204FA02F408D91CEBD7
:10052000030300F1FF382FD29E422DD902386344D5
:100530009B1B89B2B3FBF7F607FB163341EA034175
:1005400006FB0EF38B4208D91CEB010106F1FF38C4
:1005500016D28B4214D9023E6144C91A46EA0046BB
:1005600038E72E46284605E70646E3E61846F8E64D
:100570004B45A9D2B9EB020864EB0C0E0138A3E796
:100580004646EAE7204694E74046D1E7D0467BE777
:10059000023B614432E7304609E76444023842E7EF
:1005A000704700BFDFF834D0002103E00C4B5B58EC
:1005B000435004310B480C4B42189A42F6D30B4A75
:1005C00002E0002342F8043B094B9A42F9D307F0BA
:1005D000DDFB27F0ADF800F0EFFA704700000320D4
:1005E0004045080800000020880100208801002004
:1005F000D04E0120FEE7000008B5034903480CF087
:10060000FBF9034B187008BDA401002050870208B5
:10061000A801002008B513460A460146034809F020
:1006200023FB003818BF012008BD00BF740800205C
:1006300008B513460A460146034809F0ABFB0038EB
:1006400018BF012008BD00BF7408002008B503488A
:1006500009F037FE043818BF012008BD74080020D7
:100660000146014809F01BBE74080020704708B518
:10067000FFF7FCFF08BD08B500F010F908BD08B58C
:1006800000F01EF908BD07B501238DF8073000F012
:1006900017F808B98DF807009DF8070003B05DF85A
:1006A00004FB000008B5FFF7EEFF012804D1BDE808
:1006B0000840024809F0D8BD012008BD7408002098
:1006C00008B51021034807F095FFB0FA80F0400903
:1006D00008BD00BF000C024030B5134B1C7814F06D
:1006E000010489B015461BD1032903D8DFE801F0C6
:1006F0001A060C120424204609B030BD6846FFF7E4
:10070000AFFF069B2B60F6E76846FFF7A9FF079B44
:100710002B80F0E76846FFF7A3FF079B5B0AF1E732
:100720000324E8E70C46E6E70400002010B5064C79
:1007300001232370FFF78AFF18B9237803F0FE0323
:100740002370207810BD00BF0400002038B50CF0E5
:10075000BBF947F22F5504460CF0B6F9031BAB4228
:1007600002D94FF0FF3003E0FFF770FF0028F3D10C
:1007700038BD000030B585B00C4601920093FFF7FC
:10078000E5FF0028DDE9002102DA012005B030BDD7
:100790002046FFF74DFF02460028F6D10E4847F2EB
:1007A000305300680DF10E010CF005FB0028ECD170
:1007B000BDF80E30022BE8D10CF086F947F22F5528
:1007C00004460CF081F9031BAB42DED8FFF73EFF75
:1007D0000028F6D1DAE700BFAC01002030B585B0C3
:1007E0000C4601920093FFF7B1FF0028DDE90021DC
:1007F00002DA012005B030BD2046FFF70BFF0246AC
:100800000028F6D10E4847F2305300680DF10E0172
:100810000CF0D1FA0028ECD1BDF80E30012BE8D154
:100820000CF052F947F22F5504460CF04DF9031B1A
:10083000AB42DED8FFF70AFF0028F6D1DAE700BFA7
:10084000AC01002038B5134C012525700CF012F9CD
:1008500002281DD1FFF726FF50B92570FFF7F6FEDD
:1008600018B9237803F0FE0323702378DBB22370DA
:100870002378012B0CD0084D2A684AB902210A209E
:100880000CF02EFA286018B9237843F00103237086
:10089000207838BD04000020AC01002007B50223F9
:1008A0000648ADF8063000231A460DF1060100682F
:1008B0000CF051FA03B05DF804FB00BFAC0100205E
:1008C00007B501230648ADF8063000231A460DF19E
:1008D000060100680CF03FFA03B05DF804FB00BFAE
:1008E000AC0100207047000007B5064BADF80600CC
:1008F0001B68054801220DF1060109F0B3FF03B0A2
:100900005DF804FB0C0000202C09002008B5074C02
:100910000025238801339BB2B3F57A7F4FF4FA6048
:1009200094BF238025800CF01FF9F2E7D801002046
:1009300008B50C4C0C4D0B490022284609F052F921
:100940000A4923780B700A4863784B70A3788B7040
:100950000022142300680CF0FEF94FF47A700CF0BA
:1009600003F9E8E7BC01002054080020A806002095
:10097000AC0600202DE9F04FDFF824A1DFF850B1DC
:10098000464E8FB0FFF77FFE003818BF0120444964
:100990008AF800000A230022DBF80000414D0CF029
:1009A000DAF94148012231460BF034FF04460028B1
:1009B00065D13E493E483F4FDFF8F48027F0D5FB34
:1009C0003B4928680A2322460CF0C5F9314601A8A4
:1009D0000BF060FF07F11609364901A80BF0BBFFC9
:1009E000BB7D03B31E220021404626F0E7FE4946A8
:1009F000404627F0BAFB0A230022414628680CF043
:100A0000AAF920B22C4B00EB800000EB80001844C8
:100A1000494627F0AAFB0134274BE4B283F877411B
:100A2000BB7D002BD8D101A80BF07EFF23482249C3
:100A30000068642300220CF08EF901A80BF074FF0B
:100A40004FF47A700CF090F80122314600200BF040
:100A5000E1FE044670B91E220146154826F0AEFE9E
:100A60001749134827F081FB114928680A232246B9
:100A70000CF071F94FF47A700CF076F882E7114BB4
:100A8000114A12490A481A6027F06FFB0849286882
:100A90000A2300220CF05FF9D2E700BF6487020846
:100AA000100C00200C0C0020700400206687020847
:100AB0001000002058030020E0010020980B0020C7
:100AC000AA870208C80900208087020890870208C8
:100AD000D00100207FB51422002101A826F06EFE6F
:100AE0000C4C0D4D0B49286800224FF0FF330CF0E1
:100AF00062F902460028F5D123788DF80430637836
:100B00008DF8053001A9A37804488DF8063009F066
:100B100004F8E7E7180C00201C0C00205408002003
:100B200070B5002494B02146142203A8CDE90A44EC
:100B30000C9426F043FE1E4B01941A6C42F0805236
:100B40001A641B6C03F080530193019B194B0294B0
:100B50001A6842F440421A601B6803F4404302934F
:100B60000922029B4FF48033CDE90823022501239B
:100B7000CDE90D3504264FF48003CDE90F369023DF
:100B8000CDE9113508A80623139308F049FB0F237C
:100B9000CDE903354FF4A0514FF48053CDE906134E
:100BA00003A83146059408F019FD14B070BD00BFCC
:100BB00000380240007000402DE980489BB00024BE
:100BC000C74DC84F07F0F0F8FFF7AAFF1422002125
:100BD0000DA826F0F3FD00942B6BC34843F01003DF
:100BE0002B632B6B03F010030093009B01942B6B82
:100BF00043F020032B632B6B03F020030193019B35
:100C000002942B6B43F080032B632B6B03F0800368
:100C10000293029B03942B6B43F004032B632B6B17
:100C200003F004030393039B04942B6B43F0010331
:100C30002B632B6B03F001030493049B05942B6B34
:100C400043F002032B632B6B03F002030593059B18
:100C500006942B6B43F040032B632B6B03F0400394
:100C60000693069B07942B6B43F008032B632B6BB7
:100C700003F00803079322463C21079B07F0C0FCC2
:100C80009A482246042107F0BBFC994822464FF4BB
:100C9000405107F0B5FC224696484FF4005101261A
:100CA00007F0AEFC4FF003093C238F480F940DA9C9
:100CB0004FF002084FF0040ACDE90D36CDF8409010
:100CC00007F0B2FB89480F940DA9CDE90DA6CDF828
:100CD000408007F0A9FB4FF4881387480D960DA9B3
:100CE000CDE90E3407F0A0FB4FF4405380480DA926
:100CF0004FF0100BCDE90D36CDE90F4807F094FB0E
:100D00007B480F940DA9CDE90DB407F08DFB4FF48E
:100D1000005378480DA9CDE90D36CDE90F4407F011
:100D200083FB05212246062007F090F8062007F0F5
:100D3000BFF87248724A026007F0C8F8714B724AF5
:100D40003C62C7E9003238464FF48042C7E90424C8
:100D5000C7E90244C7E9064407F048FE5946384649
:100D600008F084F82146384608F09FF8674868493B
:100D700084624FF48272C0E900124FF400771822A7
:100D8000C0E906720A22634FC262C0E90244C0E9A8
:100D90000444C0E9084409F009FD5F4AC7F810B0EF
:100DA0004FF0400CC7E900264FF400534FF4C072D7
:100DB000C7E905C2BB624FF4006207230DA938469C
:100DC000CDE90E3ACDE910394FF0080BC7E90824F8
:100DD000C7E9024AFC61CDE91288CDF8348009F0F8
:100DE000E5FB4FF6FF7209A93846CDE90AB608942B
:100DF00009960C9409F0FAFB304607F001F84FF61B
:100E0000FF7209A93846CDE9098BCDE90B6409F0D9
:100E1000EDFB4FF6FF7209A93846CDE9099BCDE9F4
:100E20000BA409F0E3FB4FF40C730893089B0C939D
:100E30004FF6FF7209A93846CDE909AB0B9609F0C8
:100E4000D5FB40F26A51384609F0EEFB34222146C8
:100E50000DEB020026F0B2FC304F314BBC86C7E9E7
:100E600000340923C7E905361D2340F20D1EC7E9EA
:100E7000073940F24313C7E909E340F2171B40F278
:100E800047133846C7E90BB3C7E902443C6187F80A
:100E9000364008F0AFF8FF21F022CDE912144FF0F0
:100EA000050B4FF480614FF4A073CDE90E24CDE91A
:100EB000141BCDE916420DA922463846CDE910385B
:100EC000184F18930D94ADF864408DF8664008F003
:100ED0005CF9154B3B601B6898473B6826E000BFF8
:100EE000003802405807002000100240000802406D
:100EF000000C02400018024000000240B006002032
:100F000000300240005C0040A08601002C09002057
:100F100000500140F8080020400100A0AC0700206C
:100F200000680140B801002038000020574FDB68FE
:100F30009847574BC7E90A48C7E90C443846C7E900
:100F40000034C7E9028407F073F93146384607F0E8
:100F500027FA504B504AC3F818A0C3E90024C3E94C
:100F60000244C3E90444FFF747FB4C484C4A046180
:100F70004FF4E133C0E900230C23C0E90534C0E994
:100F80000244C4610AF088F80D942B6B43F480038B
:100F90002B632B6B434D03F48003224659460D937C
:100FA0003B200D9B06F052FF3B2006F081FF3E4B9D
:100FB000AC617F21C5E900342846F923C5E9021355
:100FC000C5E9044408F05BFD284608F02EFE3749C9
:100FD00043F612030B80224628468C7008F09DFDD4
:100FE00000F04AFD0BF034FD314A314630460BF03B
:100FF000C7FD304B304A1860314630460BF070FE6A
:101000002E4B2F4A1860494630460BF069FE2D4B97
:101010002D4A1860494630460BF062FE2B4B2C4A95
:1010200018601F2130460BF05BFE2A4B2A4A1860DD
:101030004FF4BC7130460BF053FE284B284A186021
:10104000214628480BF047FD274B284A18602146C7
:1010500027480BF040FD274B274A186021462748B8
:101060000BF039FD264B274A1860214626480BF025
:1010700032FD264B264A1860214626480BF02BFDF0
:10108000254B18600BF006FDFEE700BFB8060020F8
:1010900000B0024074080020002C014084090020A8
:1010A000001001405408002000280040BC0100202E
:1010B000F0880208CC09002078880208D0010020BE
:1010C000548902081C0C0020D8880208AC060020B5
:1010D000188902080C0C002000890208980B0020D7
:1010E000B48802080D090008DC01002054880208B9
:1010F0007D1A0008B4010020308802083109000878
:10110000B00100203089020875090008140C002085
:1011100090880208D50A0008D40100207047704763
:101120007FB5094B8DF817201B6802930DF117024C
:101130000123009201930A460146044807F0FEFC91
:1011400007B05DF804FB00BF08000020580700202E
:101150007FB500238DF81730084B1B6802930A46B1
:1011600001230DF11701009101930146044807F096
:1011700075FD9DF8170007B05DF804FB080000201E
:10118000580700201FB5084C24680092CDE90134AF
:101190000A4601230146054807F060FD003818BFE4
:1011A000012004B010BD00BF080000205807002037
:1011B00006F026BE08B506480022042107F020FAF2
:1011C000BDE8084002480122042107F019BA00BF17
:1011D0000008024038B50B4D044601220A484FF47E
:1011E000005107F00DFA00220421284607F008FA02
:1011F0002046FFF779FB28460122BDE8384004214C
:1012000007F0FEB900080240000C024038B50B4D53
:10121000044600220A484FF4005107F0F1F9002279
:101220000421284607F0ECF92046FFF75DFB28462D
:101230000122BDE83840042107F0E2B9000802406D
:10124000000C0240F7B5144E144F05460C463046CC
:101250000022042107F0D4F900224FF4005138464F
:1012600007F0CEF92846FFF73FFB0D4B0D481B68F2
:10127000224601A909F098FC384601224FF400519A
:10128000019C07F0BDF930460122042107F0B8F9AE
:10129000204603B0F0BD00BF00080240000C024031
:1012A0000C0000202C09002006F0AABD014B186894
:1012B0000BF0DBBCCC0900200268034B9A4201D141
:1012C00006F08CBD704700BF001000407047000062
:1012D00082B00E4B00220092596C41F48041596457
:1012E000596C01F48041009100990192196C41F010
:1012F000805119641B6C03F080530193019B0F21F3
:101300006FF0010002B006F0A1BD00BF003802403E
:101310000268094B9A4282B00BD100230193074B1C
:101320001A6B42F480521A631B6B03F480530193CF
:10133000019B02B0704700BF0030024000380240FD
:1013400007B50F4B02689A4216D10022A3F5F0436D
:101350000192196B41F4000119631B6B03F4000344
:10136000019305215A20019B06F070FD5A2003B01D
:101370005DF804EB06F09CBD03B05DF804FB00BF14
:1013800000B002402DE9F043044689B01422002148
:1013900003A826F013FA2268244B9A4243D1244C26
:1013A000244800250095236B43F004032363236B3B
:1013B00003F004030093009B0195236B43F00103AA
:1013C0002363236B03F001030193019B4FF0120988
:1013D0004FF400734FF001080327042603A9CDE959
:1013E0000339CDE90587079607F01EF84FF480739F
:1013F0001148079603A9CDE90339CDE9058707F020
:1014000013F80295236C43F400032364236C03F464
:1014100000030293029B236A43F400032362236ABE
:1014200023F40003236209B0BDE8F083005C0040B0
:10143000003802400008024000000240F0B599B0B8
:1014400004461422002107A826F0B8F930220DEB3B
:101450000200002126F0B2F922685E4B9A4240F069
:10146000B78008230C9332231093022312930CA805
:101470004FF48033159308F08BF908B1FFF726FF7E
:10148000554B5648002400945A6C42F080625A64CE
:101490005A6C02F080620092009A01941A6B42F03A
:1014A00020021A631A6B02F020020192019A029440
:1014B0001A6B42F001021A631A6B02F001020292E7
:1014C000029A03941A6B42F002021A631A6B02F03A
:1014D00002020392039A04941A6B42F040021A63C8
:1014E0001A6B02F040020492049A05941A6B42F0BF
:1014F00004021A631A6B02F004020592059A06941C
:101500001A6B42F008021A631B6B03F00803069380
:1015100002250E26069B0B964FF4806307A9CDE9A2
:101520000735CDE9094506F07FFF41F658032C4801
:101530000B9607A9CDE907350927CDE9094506F03E
:1015400073FF032327480B9707A9CDE90735CDE99A
:10155000094506F069FF4FF4706322480B9607A90E
:10156000CDE90735CDE9094506F05EFF4FF40C6380
:101570001D480B9607A9CDE90735CDE9094506F0C9
:1015800053FFC02319480B9607A9CDE90735CDE9CC
:10159000094506F049FF082315480B9607A9CDE930
:1015A0000735CDE9094506F03FFF4FF4A0530E483B
:1015B0000B9707A9CDE90735CDE9094506F034FFBA
:1015C00058202246052106F041FC582006F070FC08
:1015D00019B0F0BD0068014000380240001402401C
:1015E00000000240000402400018024000080240CF
:1015F000000C024010B504468CB030220021684631
:1016000026F0DCF822680A4B9A420ED12023009380
:1016100068464FF400730A9308F0BAF808B1FFF770
:1016200055FE044B0122C3F83C2E0CB010BD00BF88
:1016300000280040000047422DE9F043064689B0EB
:101640001422002103A826F0B9F83268374B9A42D9
:1016500068D103F58633002500955A6C344842F46E
:1016600000625A645A6C02F400620092009A01957A
:101670001A6B42F004021A631A6B02F00402019220
:10168000019A02951A6B42F008021A631B6B03F071
:1016900008030C24029303270DEB0401029B4FF077
:1016A00002094FF48853CDE90339CDE906744FF0B0
:1016B000040806F0B9FE0DEB04011E480794CDE9BD
:1016C00005571D4CCDE9038906F0AEFE1B4AA76203
:1016D0004FF00063C4E900234FF480614FF480535E
:1016E0004FF48040C4E904132023C4E90603C4E98D
:1016F0000255C4E908584FF400134FF40005204682
:10170000C4E90B5306F008FC08B1FFF7DFFD3120F8
:101710003464F46300220521A66306F097FB3120B0
:1017200006F0C6FB09B0BDE8F08300BF002C014005
:1017300000080240000C0240F806002058640240F5
:1017400010B5044688B01422002103A826F036F80C
:101750002268144B9A4223D103F56843002101917A
:101760005A6C114842F480125A645A6C02F4801286
:101770000192019A02911A6B42F020021A631B6BCC
:1017800003F020030293029B4FF4607202230321B3
:10179000CDE903230523CDE9061303A906F044FE92
:1017A00008B010BD005001400014024010B50446BE
:1017B00088B01422002103A826F000F82268144BF8
:1017C0009A4223D103F59433002101915A6C1148B8
:1017D00042F010025A645A6C02F010020192019A0F
:1017E00002911A6B42F001021A631B6B03F00103B2
:1017F0000293029B4FF4C06202230321CDE903232D
:101800000723CDE9061303A906F00EFE08B010BDAC
:1018100000100140000002402DE9F04186B0002395
:1018200003932B4B1C68002C4FD14FF00108C3F8D9
:101830000080284B00949A6B274842EA08029A637A
:101840009B6B03EA08030093022703260C25009BE9
:1018500001A94FF63F03CDE90137CDE9046506F054
:10186000E3FD1E48059501A9CDE90187CDE90346B1
:1018700006F0DAFD48F233131948059501A9CDE9C0
:101880000137CDE9034606F0CFFD4FF683731548C7
:10189000059501A9CDE90137CDE9034606F0C4FD60
:1018A0004CF203731048059501A9CDE90137CDE944
:1018B000034606F0B9FD60230C48059501A9CDE962
:1018C0000137CDE9034606F0AFFD06B0BDE8F08173
:1018D000200C0020003802400014024000080240A2
:1018E0000018024000100240000C024000040240B8
:1018F00030B5014689B00022362006F0A7FA36201E
:1019000006F0D6FA0025154B02951A6C144C42F0DD
:1019100010021A641B6C03F01003029301A903A8C0
:10192000029B07F017FF07F0F5FE0E4B236040F215
:10193000E733E36040000C4BB0FBF3F0013860602C
:1019400020462561A56009F01BFB20B9204609F05F
:10195000D1F909B030BD0120FBE700BF00380240DB
:10196000240C00200010004040420F00704700008F
:1019700008B5044C01224FF40051204606F040FE09
:10198000F8E700BF00180240FEE7FEE7FEE77047F9
:10199000012006F043BE0000014808F0F9BC00BF7A
:1019A00074080020014809F0E3B900BF240C0020AE
:1019B000014806F07DBB00BFF8060020014807F093
:1019C00087BB00BFAC070020014806F05FBC00BF2A
:1019D000B80600200120704708B525F09BFD1623AE
:1019E00003604FF0FF3008BD08B525F093FD1623C6
:1019F0000360FEE770B50D4614460E46731B9C420D
:101A000001DC204670BDAFF3008006F8010BF5E75E
:101A100070B50D4614460E46731B9C4201DC2046F1
:101A200070BD16F8010BAFF30080F5E74FF0FF3003
:101A300070474FF400534B600020704701207047FF
:101A4000002070470A4A116808B5034609B90949D8
:101A500011601068694603448B4206D925F05AFD8F
:101A60000C2303604FF0FF3008BD1360FCE700BF9C
:101A70006C0C0020D04E012000F074BC00F0E4BCDF
:101A8000704710B50421044625F0E3FC204610BD44
:101A900038B50C4B0C4C18800C4B822019806368B5
:101AA000984740F6110398420AD1094D23682C60EB
:101AB000822098472B688220DB689847002038BD39
:101AC0000120FCE7700C002070000020720C002048
:101AD000740C00204FF4A071F020FFF7D9BF000074
:101AE000F7B52D4D2B6804461B698220984780B2BC
:101AF0002080002843D02B680DF106025B6901A904
:101B000082209847BDF80620A2F5B47292B20A2A44
:101B100037D90B23B2FBF3F2204B1B889A4201D931
:101B2000013B9AB2BDF8043040F6B8318B422AD856
:101B3000C3F571630E339BB20F21B3FBF1F3184968
:101B400009888B4201D94B1E9BB2164E164D306848
:101B50002F68834281B28CBF591AC91AB8B2BA42EF
:101B60008CBF101A801A89B280B201440529C8BFFF
:101B700033603368C8BF2A6063802B68A38003B0DA
:101B8000F0BD0022CEE7C3F56D6308339BB20E2B88
:101B9000D2D80023D9E700BF740C0020720C0020BB
:101BA000700C0020780C00207C0C002037B56846B3
:101BB0000D461446FFF794FFBDF8000030B1BDF8A4
:101BC00002302B60BDF804302360012003B030BD2B
:101BD00001280ED0032814D0D0B90E4B1A6800F19A
:101BE0008040B2FA82F25209042100F5043006F076
:101BF00007BD084B5A68B2FA82F25209082106481A
:101C0000F5E7044BDA68B2FA82F252092021F6E7CE
:101C1000704700BF800C00200010024001280ED049
:101C2000032814D0D0B90E4B1A6800F18040003A56
:101C300018BF0122042100F5043006F0E1BC084B76
:101C40005A68003A18BF012208210648F5E7044BFC
:101C5000DA68003A18BF01222021F6E7704700BF7A
:101C6000800C002000100240012809D003280AD06F
:101C700058B900F18040042100F5043006F0C5BCDD
:101C800008210248FAE72021FBE7704700100240D4
:101C9000012380F8741080F8753070470020704779
:101CA000034B4164003918BF01211970704700BF10
:101CB0000B4C012000207047836B0BB1084618477E
:101CC00070474FF6FF707047406803689B6918477C
:101CD000704770477047000070B5044600F054FC30
:101CE0002368D3F88850044BD4E90F122046AC4641
:101CF000BDE87040604700BF000000D008B5036831
:101D00000446D3F880309847236820469B6F984755
:101D100000F0ECF8236820461B6F98472920FFF756
:101D200075FA00F0E3F8236820461B6F9847F8E740
:101D300010B504460FF0C4FA23682046D3F8AC303F
:101D4000BDE81040184700F011BC00F015BC00F0D1
:101D500041BC00F0E7BB00F041BC00F049BC00F022
:101D6000EBBB0EF039BC10B57C21044625F071FBAD
:101D7000204610BD90F877301BB1406803681B689F
:101D8000184718467047000010B590F8341090F8C6
:101D900074400C4B8C421A7809D03AB90A4A0B4964
:101DA0001488088810800C8001221A7010BD002A47
:101DB000FCD0054A05491488088810800C80002250
:101DC000F3E700BF044C0120004C0120024C01202D
:101DD00070B50D46194635B9094B0A4A0A4840F212
:101DE000BB2125F065FBC0E90F52084B003A18BF34
:101DF00001221A700368BDE87040D3F88C30184790
:101E000084890208BC8902080A8A02080A4C012057
:101E100008B5094B1B888B4203D8084B1B8893429B
:101E200005D9074B074A08489E2125F041FB074B7F
:101E30001980074B1A8008BD004C0120024C01207C
:101E40004F8A0208B28A02080A8A0208064C012058
:101E5000084C0120012108B5002208460AF090FE36
:101E60000A4B186028B90A4B0A4A28210A4825F06B
:101E70001FFB0022042101200AF032FF074B1860EB
:101E800018B9074B034A2C21F0E708BD940C002039
:101E9000D08B0208198C0208488C0208900C002094
:101EA0008A8C0208024B4FF0FF3118680AF0B2BE6C
:101EB000940C0020014B18680AF0D7BE940C002047
:101EC000024B002118680AF0A5BE00BF940C002048
:101ED000FFF7F0BF03480449006800231A460AF0E0
:101EE0003ABF00BF900C00203000002013B5084C12
:101EF00000231A4601A920680AF05DFF20684FF010
:101F0000FF33002201A90AF056FF02B010BD00BF46
:101F1000900C002003685B6C184701207047036831
:101F20009B6A184782B0002301930D4B1A6B42F451
:101F300000021A631A6B02F400020192019A1A69F4
:101F400042F400021A611A6922F400021A61054B78
:101F5000054A1A61054B4FF080629A6002B07047E3
:101F600000380240B8060020B11F000800E100E080
:101F700040F2EF3070470000054B0360054B4FF017
:101F80008062C3F88820BFF34F8FBFF36F8F704715
:101F90001C8E020800E100E010B504464FF45A61BF
:101FA000FFF7EAFF204625F054FA204610BD000056
:101FB000024B1B68586803685B6918470C4C01208A
:101FC00070B5044625460A4B0C3000266060267228
:101FD000667245F8203B602229460FF0D9FA04F5D5
:101FE0005A63EE602435AB42FBD1204670BD00BF82
:101FF0001C8E020808B50B290BD8DFE801F0120689
:10200000100A0A0A0A0808080808012008BD052065
:10201000FCE7054B054A0648662125F049FA0020F1
:10202000F4E70220F2E700BFCC8C0208E78C02083C
:10203000318D020808B50A2909D8DFE801F0100639
:102040000E080808080606060600012008BD054B14
:10205000054A0648872125F02BFA0020F6E70220E2
:10206000F4E700BFCC8C0208718D0208318D0208A4
:102070002DE9F8434F7F0C4639468146FFF7BAFFFA
:1020800094F81E80054641464846FFF7B3FF414697
:1020900006464846FFF7CEFFA18A628B424B521A92
:1020A0001A649A61228B521A1A61E28A586342EAD0
:1020B00001425A6420696268D863DA60216894F842
:1020C0001CC080294FEA0C6226D010D8202945EA8E
:1020D000020461D040295FD004295DD0324B2A43ED
:1020E00042F400324745DA615AD0304A40E0B1F557
:1020F000807F07D0B1F5007FF0D142F4003242F08A
:10210000090203E042F4003242F00A02DA61E268B6
:102110001A625E6258612AE0A4682A4342F40032DF
:10212000211DD962DA6122785E62586142B1012ACA
:1021300021D01F4B1F4A204840F2111125F0B8F959
:10214000DA69618822F47F42013922F0100242EA02
:102150000122DA610120144BDA6942F02002DA61CF
:10216000DA699206FCD410229A600028BDD0134A86
:102170001A60BDE8F8836288D969541E21F47F4251
:1021800022F0100242EA0422BCF1FF0042F01002E9
:1021900018BF0120DA61DEE744F40034DC61B8E7FF
:1021A00040F20122E4E700BF00B00240010201005A
:1021B000BC8D0208D68D0208318D02080102020092
:1021C00070B50C46897FFFF735FFA68AE18A628BDE
:1021D000154B2569586341EA0641921B5964DD633A
:1021E0001A642668E168082E0DD19A611A61586256
:1021F000207F0E4A42EA0062DA610D4A19625D618F
:10220000DD601A6070BD0022D8611A6148090A0AAF
:1022100002F4784200F4FC600243C1F3C4010A43B3
:102220009A63044AEDE700BF00B0024009000100D4
:102230000102020001020300012070470C207047D8
:102240000C2303FB0100083070470C2303FB010043
:1022500008307047012070474FF4F35070474FF437
:10226000F35303FB0100083070474FF4F35303FBB3
:10227000010008307047012070471020704700EBC4
:1022800001100830704700EB011008307047084615
:1022900001F004BA10B5034B036004460CF0A8FD2E
:1022A000204610BDD48E020810B50446FFF7F2FF99
:1022B0002046142125F0CDF8204610BD10B5034B63
:1022C000036004460CF094FD204610BDA08E020869
:1022D00010B50446FFF7F2FF204641F6686125F08D
:1022E000B8F8204610BD000010B5034B036004464B
:1022F0000CF07EFD204610BD6C8E020810B5044621
:10230000FFF7F2FF2046182125F0A3F8204610BD64
:1023100010B5094B0360044600F5F4501430FFF784
:10232000B9FF04F12C00FFF7C9FF04F11400FFF717
:10233000DBFF204610BD00BF088F020808B5024829
:10234000FFF7E6FF08BD00BF9C0C002010B5044657
:10235000FFF7DEFF204642F2A01125F07AF8204672
:1023600010BD00002DE9F34100F0AAF9054600F088
:10237000ABF900240146234628462246009417F074
:102380001DFB264B264A274D1A60204604F0D6FC3A
:10239000254817F05FFA2B78BFF35B8FDB0737D444
:1023A000284625F058F898B3204C214B236004F1BF
:1023B000140000F5F45707F5DA7604F12C08606094
:1023C000C4F80880E76026610CF014FD194B6361C6
:1023D00040460CF00FFD184BE36238460CF00AFD46
:1023E00004F58053154AC3F8942E03F6A86004F050
:1023F000F7FF224607F11401304604F099FF3046FA
:1024000001F04CF90E4825F071F8284625F02FF818
:102410000C4802B0BDE8F041FFF75EBC884C0120DB
:102420005C3C0020980C0020340000209C0C002014
:10243000088F02086C8E0208A08E0208D48E020853
:102440003D230008E03B00200148FFF757BC00BFD8
:10245000E03B002070B5234C234E244B244D2360D9
:102460003046FFF7ADFD28461AF054FC214B2248B8
:10247000DC60224C03600022F0204FF48071208049
:10248000C3E912121E4C1F492080C3E919121E4CC9
:102490001A864FF080714FF4A07059670121C3E98B
:1024A0000422C3E90622C3E90822C3E90A22C3E9D8
:1024B0000E22C3E91022C3E91422C3E916221A66C8
:1024C00083F86C201A67C3E9016583F878102080CF
:1024D0000E4C83F8341020800D4802700D4A1A60AB
:1024E00070BD00BF3C2E0020402E002074890208E1
:1024F000603C0020E03B00200C4C0120004C0120FF
:10250000064C012001000001024C0120084C012072
:10251000044C0120008B02080148FFF72DBD00BFCD
:10252000402E0020034B902283F85A2383F858232F
:10253000704700BF00E100E0094A0A49D3680A4831
:10254000C3F30A03013B9BB20B801169C1F30A017B
:10255000013901801364536B43F0010353637047E7
:1025600000680140DC3C0020DA3C0020014BD3F83D
:10257000AC00704700680140024B0122C3F8AC1068
:102580005A6270470068014070B504460EF079F851
:1025900023685D6E14F0A8F801462046A84723681A
:1025A000054AD3F888502046AC460023BDE8704069
:1025B000A2F51631604700BF00B004D00EF048B855
:1025C00090F84B3013B1024B01221A700EF04CB848
:1025D000D83C00200EF006B80EF05FB9034B4FF068
:1025E00080629A604FF080729A60704700E100E06C
:1025F000084B4FF08062C3F88820BFF34F8FBFF3C2
:102600006F8F4FF08072C3F88820BFF34F8FBFF3F6
:102610006F8F704700E100E010B5144C236823B3BE
:10262000134B144A1B6C11888B4213D1124B19881F
:1026300006F0D8FD226892F86630013382F86630E1
:10264000FFF748FC20680EF03BFEBDE8104000207C
:10265000FFF7BEBA06F0C6FD206803681B6A9847FC
:10266000BDE810400020FFF7D9BA10BD0C4C012086
:1026700000680140DC3C0020DA3C0020704708B5CF
:10268000042914D8DFE801F00B03070B0F0004F056
:10269000A1FB406808BD04F09DFB8068FAE704F0E8
:1026A00099FB0068F6E704F095FBC068F2E70020AC
:1026B000F0E710B50421044624F0CBFE204610BDFF
:1026C00000487047288F02081020704713B5002477
:1026D00051B1036801948DF8034001AA9C680DF183
:1026E0000303A04702B010BD0846FBE740897047CE
:1026F000808970478088704783798088184480B2C9
:102700007047C07900F07F007047C079C0097047FA
:102710000020704781807047C180704701817047F9
:10272000418170477047704770477047704710B4D9
:10273000C4880368121B84885B6D091B12B25DF8A4
:10274000044B09B218474FF6FF7383814FF0FF33F4
:1027500003621368C36110607047806A704790F825
:1027600025201AB190F8242002B11860704790F823
:10277000252012B103685B69184770472DE9F041C5
:102780001D460368BDF918701B6B04461646984732
:102790002368314620465B6B9847236829462046CC
:1027A0009B6B9847236839462046DB6BBDE8F041B8
:1027B000184770477047704770477047704730B58B
:1027C0000368018185B06D460146D3F88430044624
:1027D0002846984795E807003C3484E8070005B090
:1027E00030BD30B50368418185B06D460146D3F8F0
:1027F000843004462846984795E807003C3484E82E
:10280000070005B030BD0022028042808280C28075
:10281000704780F83610704770B5036804461B6B2C
:10282000154698472368294620465B6EBDE87040F0
:1028300018470020704700224FF0FF31C0E9002107
:1028400082607047806C7047704770477047704770
:1028500090F82C304BB100F16C021268C2653BB1AC
:1028600000F174031B680366704700F16802F4E727
:1028700000F17003F6E708B590F82C303BB100F199
:10288000C4031B68C0F8A830FFF7E2FF08BD00F1E1
:10289000C003F6E7704770477047704730B4C268AE
:1028A00044685510034604EB6200D20748BF6259E2
:1028B0009B6830BC48BFD358184743682BB1836826
:1028C0002BB9C06800F0010070471846704701201E
:1028D000704790F82D3080F8AE3080F85A3070474D
:1028E00090F82D3080F8A43080F85A30704790F876
:1028F0002D3080F85A30704710B50821044624F076
:10290000A8FD204610BD10B54C21044624F0A1FDC1
:10291000204610BD10B55021044624F09AFD2046F3
:1029200010BD10B57821044624F093FD204610BD5B
:1029300010B5A821044624F08CFD204610BD10B52A
:10294000C821044624F085FD204610BD10B5102195
:10295000044624F07EFD204610BD10B54FF42761DB
:10296000044624F076FD204610BD10B504467C30A8
:1029700094F82C303BB104F17A0112F0E1F82046D2
:10298000FFF766FF10BD04F17801F6E710B50446C5
:10299000006B50B10368DB68984730B1206B036867
:1029A00021469B68BDE81040184710BD13B504468A
:1029B000C06C019160B10368DB68984740B1E06C7E
:1029C000019A03689B68214602B0BDE81040184791
:1029D00002B010BD0368828D70B55E6B114B1B6831
:1029E00004468DB22BB9104B104AAE21104824F08A
:1029F0005FFD10490988914203D80F4B0B4AAF2164
:102A0000F4E713F812200D4B1B6853F822000368FB
:102A1000DB6A9847281A01B233462046BDE8704069
:102A2000184700BF7C4C012068900208AA90020859
:102A3000D8900208804C01201F910208844C01208C
:102A40000B7970B590F82C6004460D469BB98EB991
:102A5000B3FA83F35B0984F82C3023682046D3F85B
:102A60008C309847236820465B69984716B12B79CC
:102A7000012B03D070BD002EFCD0E9E7236820466F
:102A8000D3F88830BDE87040184708B500F27C43A1
:102A9000994205D113F028FEBDE8084000F0FEBDC4
:102AA00000F2D450814205D113F01EFEBDE808406B
:102AB00000F034BE08BD70B5036804461B6B1546B4
:102AC00098472368294620465B6BBDE8704018474D
:102AD0000B88B0F908102DE9F041A0F87830138880
:102AE000A0F87A30044601EBD17110461746C1F3C5
:102AF0004F0516F077FFB4F90A30804603EBD37325
:102B00003846C3F34F0616F0B1FFA5EB5801A6EB0C
:102B1000500212B204F17C0009B2FFF7CCFF236827
:102B20002046D3F88C30BDE8F041184770B50368F3
:102B300004469B6B15469847236829462046DB6B65
:102B4000BDE87040184700000022C0E90122C0E93A
:102B50000322C0E90522C0E907224FF48072828473
:102B6000014A0260704700BF6891020810B5262232
:102B70000446002124F022FE2046FFF7E5FF044B27
:102B80002360FF2384F826300023A362204610BD73
:102B900078C7020810B526220446002124F00EFE54
:102BA0002046FFF7D1FF0A4B23600A4BA3624FF682
:102BB000FF73A3854FF47F020023C4E90C324FF06A
:102BC000FF32C4E910232387E363204610BD00BF12
:102BD000B8C60208D091020810B50446FFF7DAFF24
:102BE0000023044AA364E3640123226084F82430B0
:102BF000204610BD709202084FF47F4370B5064620
:102C0000838540F2011300258384124B8562C0E95D
:102C10000155C0E90355C0E90555C0E907550563ED
:102C200046F8343B04463046FFF7A0FF0A4B636387
:102C30002A4629463046C4E91A55C4E91C5525667A
:102C4000A4F86450FFF737FF204631460CF01EFC15
:102C5000204670BD0093020810C802082DE9F04F0D
:102C60002DED108B04468DB015F094F8224600250A
:102C7000944BE56342F8403B10460CEE102AFFF7F8
:102C800075FF04F16C03184604F198090EEE903AB2
:102C9000FFF76CFF48460DF071F904F5AA7318466A
:102CA00008EE103AFFF798FF04F5D273184604F5C2
:102CB000FA780CEE903A04F51177FFF78DFF404655
:102CC000FFF78AFF3846FFF787FF04F5257318469C
:102CD00008EE903AFFF780FF04F53973184609EEC5
:102CE000103AFFF779FF04F54D73184609EE903A54
:102CF000FFF772FF04F5617318460AEE103AFFF70A
:102D00006BFF04F5757318460FEE103AFFF72EFFB0
:102D100004F5806318460AEE903AFFF75DFF04F56C
:102D20008A6318460FEE903AFFF720FF04F27C43C7
:102D300018460BEE103AFFF75FFF634BC4F87C3484
:102D400004F59F664FF0FF3326224FF6FF7BC4F851
:102D5000F43429463046ADF828B024F02FFD304633
:102D6000FFF7F2FE594BC4F8F834BDF82830A4F848
:102D70001E35304684F820B50AA911F0E1FE04F2B0
:102D8000245A31461BEE100A0CF080FB50460CF022
:102D900083FA04F2D45318460BEE903AFFF72CFF57
:102DA0004B4BC4F8D43504F24C630DEE103A184680
:102DB000FFF7F0FE1DEE101A1BEE900AC4F89456B1
:102DC000C4F898560CF062FB04F29C631846414E1E
:102DD0000DEE903AFFF7DEFE04F5DD63C4F89C6665
:102DE0001846C4F8E4560393FFF7C0FE04F21473C8
:102DF00018460EEE103AFFF7CDFE374BC4F8603A96
:102E0000364BC4F8683AF0231CEE100AC4F8146775
:102E100000932A464FF4A0732946C4F85C57C4F8BF
:102E2000644AC4F86C5AFFF7A9FC4FF07F43A366CD
:102E3000BF231EEE900A009331224FF48B73294674
:102E4000FFF79CFC264BC4F89430BF23312200933B
:102E500029464FF48B734846FFF790FC4FF07F41B3
:102E600048460DF0A0FB2A4618EE100A0921FFF78C
:102E700022FE4FF07F43C4F88431D4F85431A4F8D3
:102E8000885104AED3F8843018EE101A30469847B3
:102E900096E8070004F5C87383E80700114B1B6828
:102EA00004F5EC6B2BB9104B104AAE21104824F0FE
:102EB000FFFA104B1B88052B20D80F4B0B4AAF2174
:102EC000F4E700BFF09402089C93020878C8020857
:102ED0003C940208E0910208D89402088B2A00086A
:102EE000C2C2F2FF7C4C012068900208AA9002083E
:102EF000D8900208804C01201F910208EE4B05215A
:102F0000186803F057FFED4A03461921584616F09A
:102F100094FC18EE100AC4F89CB111F0FFFBDFF826
:102F2000ACB3CDF828B00D2318EE100A0AA9ADF8FD
:102F30002C3011F013FC18EE101A48460CF03DFD31
:102F40001F231CEE900A00931C2240F20D1309214E
:102F5000FFF714FCD4F8A431A4F8D8514FF07F4205
:102F60003046D3F88430C4F8D4211CEE901A984728
:102F700096E8070004F5F07383E8070004F2927303
:102F80001CEE900AC4F8EC310AA90C23A4F892575D
:102F9000ADF82C30CDF828B011F0E0FB1CEE901A03
:102FA00048460CF00AFD40463B220921FFF783FD0D
:102FB000D4F8F431A4F828524FF07F42414630460D
:102FC000D3F88430C4F82422984796E8070004F523
:102FD0000C7383E8070004F2C6734046C4F83C3221
:102FE000A4F8C65711F09AFB0B2340460AA9ADF886
:102FF0002C30CDF828B011F0B1FB414648460CF01A
:10300000DCFC384658220921FFF755FDD4F844323C
:10301000A4F878524FF07F4239463046D3F88430D6
:10302000C4F87422984796E8070004F5207383E8F3
:10303000070004F2FA733846C4F88C32A4F8FA5741
:1030400011F06CFB0A2338460AA9ADF82C30CDF8F4
:1030500028B011F083FB394648460CF0AEFC18EE60
:10306000900A76220921FFF726FDD4F89432A4F8BD
:10307000C8524FF07F423046D3F88430C4F8C4229F
:1030800018EE901A984796E8070004F5347383E821
:10309000070004F62E03C4F8DC3218EE900AA4F8F8
:1030A0002E5811F03BFB092718EE900A0AA9CDF81B
:1030B00028B0ADF82C7011F051FB18EE901A48466C
:1030C0000CF07BFC19EE100A90223946FFF7F3FC56
:1030D000D4F8E432A4F818534FF07F423046D3F8C6
:1030E0008430C4F8142319EE101A984796E80700A4
:1030F00004F5487383E8070004F6620319EE100A2A
:10310000C4F82C33A4F8625811F008FB082319EE18
:10311000100A0AA9ADF82C30CDF828B011F01EFB2A
:1031200019EE101A48460CF048FC19EE900AA82235
:103130003946FFF7C0FCD4F83433A4F868534FF095
:103140007F423046D3F88430C4F8642319EE901AD5
:10315000984796E8070004F55C7383E8070004F6D7
:10316000960319EE900AC4F87C33A4F8965811F02F
:10317000D5FA072319EE900A0AA9ADF82C30CDF83C
:1031800028B011F0EBFA19EE901A48460CF015FC35
:103190001AEE100AC9223946FFF78DFCD4F88433A1
:1031A000A4F8B8534FF07F423046D3F88430C4F8C7
:1031B000B4231AEE101A984796E8070004F57073C6
:1031C00083E8070004F6CA03C4F8CC331AEE100AE9
:1031D000A4F8CA5811F0A2FA4FF006021AEE100A2B
:1031E0000AA9ADF82C20CDF828B011F0B7FA1AEEE4
:1031F000101A48460CF0E1FB4FF031080121484617
:103200000DF0D6F91FEE100A4FF4A0732A46294696
:10321000CDF80080FFF7B2FA294BC4F8FC331AEE60
:10322000900A2A462946FFF746FCD4F80034A4F851
:1032300034544FF0FF323046D3F88430C4F8302491
:103240001AEE901A984796E8070004F23C4383E888
:1032500007001C4A136804F6FE06002B3FF423AE59
:10326000194A1388032B7FF628AE134B03211868E5
:1032700003F0A0FD114A03463221304616F0DDFA74
:103280001AEE900AC4F8486411F048FA1AEE900A4F
:1032900004230AA9ADF82C30CDF828B011F05EFA5D
:1032A000BF231FEE900A009342462A234FF48B71EE
:1032B000FFF764FA0CE000BF884C01205D91020822
:1032C0007D513DFF7C4C0120804C0120D0910208B3
:1032D0002A26974BC4F878342946009633462A4666
:1032E00004F59660FFF74AFA0523A4F8E034914B01
:1032F000C4F8E434904BC4F8E8344FF07F428F4B6D
:10330000C4F8F0341BEE100AC4F8EC24FFF72DFBD0
:1033100002271BEE100A0AAA09A9ADF82470ADF81D
:103320002870FFF7D5FB864BC4F8FC341BEE100A5F
:103330000096334642464FF48B7104F52668FFF73A
:103340001DFA2D233C220AA95046C4F8AC84ADF8DE
:1033500028500BF060FF50467A490BF049FFA62138
:1033600050460BF049FF192650460BF034FF2A4611
:103370002946009604F5C1604B23FFF7FFF90323AC
:10338000A4F83836704BC4F83C36704BC4F840365D
:103390006F4BC4F844366F4BC4F848361BEE900AA6
:1033A000FFF769FA1DEE100A0AA9CDF828B0ADF8AA
:1033B0002C7011F0D3F9B4F9DE25B4F9DC151DEE4B
:1033C000100AFFF7B3FB29461DEE100A00964B23A7
:1033D0000622FFF7D3F9604BC4F898364FF0FF325E
:1033E0001BEE900AC4F89426FFF745FA1BEE900AEC
:1033F00000964B237A223F21FFF7C0F91BEE901A6B
:103400005046C4F804860BF0F0FE69231DEE900AC6
:1034100000932946C9231022FFF7B0F94FF07F42ED
:10342000C4F8CC2604F662134FF0FF32C4F8DC2651
:103430001DEE900AA4F8D056C4F8D856C4F8E05649
:10344000A4F86259C4F8E4360AA90123ADF82C3077
:103450000F26CDF828B011F081F91DEE901A5046D4
:103460000BF0C3FE039800966FF001022946CA23B1
:10347000FFF784F9394B0399C4F8103750460BF025
:10348000B4FE6FF001021EEE100A29460096C72313
:10349000FFF774F9274BC4F844374FF0FF33C4F8F3
:1034A000543704F62A23C4F85C371EEE100AA4F839
:1034B0004857C4F85057C4F85857A4F82A5A0AA9CC
:1034C000ADF82C50CDF828B0251D11F047F91EEEAF
:1034D000101A50460BF089FE1CEE101A28460BF00D
:1034E000D5FF1EEE901A28460BF0D0FF494628461D
:1034F0000BF0CCFF1FEE101A28460BF0C7FF1AEE98
:10350000901A28460BF0C2FF1FEE901A28460BF0C7
:10351000BDFF1BEE101A28460BF0B8FF2846514697
:103520000BF0B4FF20460DB0BDEC108BBDE8F08F62
:103530009D9D9EFFFCFCFCFFABA9A4FF424242FF05
:103540000A000600A1A1FFFF015200FFEDEDEDFF13
:103550005E5851FF996633FFC7C7C9FF0F0F0FFFB2
:103560007047704700F596730868496803C3704751
:10357000704770474160704770470000064BC0F8C5
:1035800048310023C0F84C3100F5A073C0F8440165
:10359000C0F83C31704700BF7D3C00080123037236
:1035A00070477047704710B4C268416854100346B2
:1035B00001EB6200D20748BF0A599B685DF8044BD3
:1035C00048BFD358184743682BB183682BB9C068EC
:1035D00000F001007047184670470120704710B591
:1035E0000C21044623F035FF204610BD10B51021F4
:1035F000044623F02EFF204610BD10B54FF4AC71E9
:10360000044623F026FF204610BD08B513F06CF8E1
:10361000BDE8084013F078BC10B50446D0F83C0172
:1036200058B10368DB68984738B1D4F83C010368A7
:103630009B6898470023C4F83C3110BDF8B5044698
:1036400017460E4613F0B8F8104B0025C4E954761F
:103650000F4E1C60C4E952550E4B306823600E4B70
:10366000C4E95035036829469B68C4E94E5598471C
:10367000284603F063FB336893F876200AB1D86CD0
:1036800000B998681BF091F92046F8BD784C0120EC
:103690000C4C0120949C02087C9C0208064BC0F84C
:1036A00048310023C0F84C3100F5A073C0F8440144
:1036B000C0F83C31704700BF7D3C0008064BC0F8A5
:1036C00048310023C0F84C3100F5A073C0F8440124
:1036D000C0F83C31704700BF2D3B0008064BC0F8D6
:1036E00048310023C0F84C3100F5A073C0F8440104
:1036F000C0F83C31704700BFE1390008064BC0F804
:1037000048310023C0F84C3100F5A073C0F84401E3
:10371000C0F83C31704700BF91380008064BC0F834
:1037200048310023C0F84C3100F5A073C0F84401C3
:10373000C0F83C31704700BF4537000803685B6A3A
:10374000184700002DE9F14FD0E9545A0746A86800
:1037500003681B6A9847B0F55B6F05D2444B454A36
:10376000A321454823F0A4FE686803681B6A9847B4
:103770000F2803D8414B3F4AA421F2E7E8680368C9
:103780001B6A98470B2803D83D4B3A4AA521E8E726
:10379000DFF8F49012F0A8FF12F0F4FFD9F800005F
:1037A00010B10368DB689847D9F8000010B10368CE
:1037B0001B689847DFF8D480D8F8000010B1036880
:1037C0005B699847D7F8380110B103685B68984780
:1037D000D8F8000010B103681B689847D7F8380183
:1037E00010B103689B689847E8680021FFF7A6FFBF
:1037F0004FF0000B234B03600446C0F804B080F880
:1038000008B0A868036859465B6A9847064603F003
:1038100087FC6868036859465B6A984731460546E5
:1038200003F00EFBC9F80040C7F83851C8F8006033
:10383000E5B12B1DCAF800303368C5F808A0304642
:10384000DB68F56398472B6828461B689847214634
:10385000304614F04BFC236820461B6998472368C8
:103860005B69204601B0BDE8F04F18472B46E1E701
:103870001C950208AA950208B4960208FB96020855
:103880009E970208E09C02086C4C0120684C0120C5
:103890002DE9F14FD0E9545A0746A86803681B6A1E
:1038A000984740F66333984205D8454B454AA321D3
:1038B000454823F0FDFD686803681B6A98470F2898
:1038C00003D8424B3F4AA421F2E7E86803681B6A29
:1038D00098470B2803D83E4B3A4AA521E8E7DFF882
:1038E000F89012F001FF12F04DFFD9F8000010B16E
:1038F0000368DB689847D9F8000010B103681B68BB
:103900009847DFF8D880D8F8000010B103685B69E9
:103910009847D7F8380110B103685B689847D8F822
:10392000000010B103681B689847D7F8380110B140
:1039300003689B689847E8680021FFF7FFFE4FF097
:10394000000B244B03600446C0F804B080F808B0B4
:10395000A868036859465B6A9847064603F066FF05
:103960006868036859465B6A98473146054603F024
:1039700073FEC9F80040C7F83851C8F80060E5B1D7
:103980002B1DCAF800303368C5F808A03046DB6844
:10399000F56398472B6828461B68984721463046B0
:1039A00014F0A4FB236820461B69984723685B69D1
:1039B000204601B0BDE8F04F18472B46E1E700BFB5
:1039C0001C95020841980208B4960208FB9602086A
:1039D0009E970208E09C02086C4C0120684C012074
:1039E0002DE9F14FD0E9545A0746A86803681B6ACD
:1039F0009847B0F5F35F05D2444B454AA3214548AB
:103A000023F056FD686803681B6A98470F2803D89F
:103A1000414B3F4AA421F2E7E86803681B6A9847D4
:103A20000B2803D83D4B3A4AA521E8E7DFF8F4908C
:103A300012F05AFE12F0A6FED9F8000010B1036889
:103A4000DB689847D9F8000010B103681B689847F5
:103A5000DFF8D480D8F8000010B103685B6998479C
:103A6000D7F8380110B103685B689847D8F80000B0
:103A700010B103681B689847D7F8380110B1036884
:103A80009B689847E8680021FFF758FE4FF0000B4D
:103A9000234B03600446C0F804B080F808B0A8685F
:103AA000036859465B6A9847064603F08FFC6868CE
:103AB000036859465B6A98473146054603F05AFC4D
:103AC000C9F80040C7F83851C8F80060E5B12B1DAF
:103AD000CAF800303368C5F808A03046DB68F563E3
:103AE00098472B6828461B6898472146304614F0B3
:103AF000FDFA236820461B69984723685B692046C6
:103B000001B0BDE8F04F18472B46E1E71C950208CD
:103B100051990208B4960208FB9602089E97020883
:103B2000E09C02086C4C0120684C01202DE9F14F0B
:103B3000D0E9545A0746A86803681B6A984741F6BB
:103B40000F03984205D8454B454AA321454823F029
:103B5000AFFC686803681B6A98470F2803D8424B7C
:103B60003F4AA421F2E7E86803681B6A98470B28DC
:103B700003D83E4B3A4AA521E8E7DFF8F89012F067
:103B8000B3FD12F0FFFDD9F8000010B10368DB6847
:103B90009847D9F8000010B103681B689847DFF810
:103BA000D880D8F8000010B103685B699847D7F84F
:103BB000380110B103685B689847D8F8000010B16D
:103BC00003681B689847D7F8380110B103689B68F1
:103BD0009847E8680021FFF7B1FD4FF0000B244B38
:103BE00003600446C0F804B080F808B0A868036811
:103BF00059465B6A9847064603F016FD68680368F5
:103C000059465B6A98473146054603F0F3FCC9F80C
:103C10000040C7F83851C8F80060E5B12B1DCAF85C
:103C200000303368C5F808A03046DB68F563984774
:103C30002B6828461B6898472146304614F056FAF0
:103C4000236820461B69984723685B69204601B0BA
:103C5000BDE8F04F18472B46E1E700BF1C9502086E
:103C6000699A0208B4960208FB9602089E97020819
:103C7000E09C02086C4C0120684C01202DE9F14FBA
:103C8000D0E9545A0746A86803681B6A984740F26F
:103C90007343984205D8454B454AA321454823F034
:103CA00007FC686803681B6A98470F2803D8424BD3
:103CB0003F4AA421F2E7E86803681B6A98470B288B
:103CC00003D83E4B3A4AA521E8E7DFF8F89012F016
:103CD0000BFD12F057FDD9F8000010B10368DB6846
:103CE0009847D9F8000010B103681B689847DFF8BF
:103CF000D880D8F8000010B103685B699847D7F8FE
:103D0000380110B103685B689847D8F8000010B11B
:103D100003681B689847D7F8380110B103689B689F
:103D20009847E8680021FFF709FD4FF0000B244B8E
:103D300003600446C0F804B080F808B0A8680368BF
:103D400059465B6A9847064603F03CFC686803687E
:103D500059465B6A98473146054603F0D7FBC9F8D8
:103D60000040C7F83851C8F80060E5B12B1DCAF80B
:103D700000303368C5F808A03046DB68F563984723
:103D80002B6828461B6898472146304614F0AEF948
:103D9000236820461B69984723685B69204601B069
:103DA000BDE8F04F18472B46E1E700BF1C9502081D
:103DB0006D9B0208B4960208FB9602089E970208C3
:103DC000E09C02086C4C0120684C0120006A70479E
:103DD000406A704770478B8880690A68DB0A50F830
:103DE00023001044704710B5C2B1137BB3B1547BAC
:103DF000D27A240204F4E0641443C26998B202EB5C
:103E0000840213888B4202D192F9020010BD05D8BA
:103E1000013880B204320028F3D1F7E70020F5E73B
:103E200010B52821044623F014FB204610BD0000E5
:103E300030B589B00446BDF850500695BDF84C50D9
:103E400005959DF8405004959DF83C5003959DF8CC
:103E5000385002959DF8345001959DF830500095EA
:103E600013F0C4FC064B2360119BA361129BE3611A
:103E7000159B2362169B6362204609B030BD00BFCC
:103E8000049D020870477047704730B4C2684468A8
:103E90005510034604EB6200D20748BF62599B6885
:103EA00030BC48BFD358184743682BB183682BB93F
:103EB000C06800F001007047184670470120704745
:103EC00010B51021044623F0C4FA204610BD10B5E9
:103ED0004FF4F351044623F0BCFA204610BD00F520
:103EE0002A60884208B505D112F0FEFBBDE8084003
:103EF000FFF7D4BB08BD000070B5154E0023FF22AC
:103F0000C0E90333436033680272124A026093F8D7
:103F1000762004460AB1D86C00B998680368DB6A59
:103F200098473368B0FA80F5D86C6D0930B10368F2
:103F3000DB6A9847002808BF45F001052DB9064BFC
:103F4000064A07482C2123F0B3FA204670BD00BF73
:103F50000C4C0120D4BB0208549D0208B29D0208FB
:103F6000EB9D020810B50446FEF714FE024B2360D9
:103F70000023A364204610BDE09102084FF47F4364
:103F8000F7B50646838540F2011300258384244B50
:103F90008562C0E90155C0E90355C0E90555C0E98E
:103FA0000755056346F8343B04463046FEF7DEFD10
:103FB0001C4B63632A4629463046C4E91A55C4E9B6
:103FC0001C552566A4F86450FEF775FD3146204661
:103FD00026460BF05BFA144B46F87C3B4FF0FF3360
:103FE0002622A36729464FF6FF773046ADF80470C6
:103FF00023F0E4FB3046FEF7A7FD0C4BE367BDF86A
:104000000430A4F8A23001A9304684F8A47010F05E
:1040100097FD204631460BF039FA204603B0F0BD3B
:104020000093020810C802089C93020878C802088E
:10403000520149010EF018B8520149010EF01FB8A3
:1040400010B4046CB4EB411F4FEA411204D05DF888
:10405000044B02640DF002BF5DF8044B7047000092
:104060002DE9F04F2DED108B04469FB013F092FE1A
:1040700022460025EB4BE56342F8403B10460BEE31
:10408000902AFEF773FD04F16C0318460C93FEF7BB
:104090006DFD04F1980318460CEE103AFEF77AFD18
:1040A00004F1E003184608EE103A0DF0B7FE04F5EF
:1040B000AA731846DC4E1593FFF71EFF04F5B6737E
:1040C000C4F854611846C4F8685108EE903A0DF0EF
:1040D000A5FE04F5F07318461493FFF70DFF04F5E1
:1040E000FC73C4F8E0611846C4F8F45109EE103AC4
:1040F0000DF094FE04F51B7318461393FFF7FCFEB6
:1041000004F52173184604F53E77C4F86C62C4F8D0
:10411000805209EE903A0DF081FE3846FFF7ECFE32
:1041200004F54473C4F8F8621846C4F80C530AEE58
:10413000103A0DF073FE04F5617318461293FFF701
:10414000DBFE04F56773C4F884631846C4F898531B
:104150000AEE903A0DF062FE04F582631846119360
:10416000FFF7CAFE04F58563C4F810641846C4F866
:1041700024540BEE103A0DF051FE04F29C4304F26D
:10418000B44B18461093FFF7B7FEC4F89C64C4F80C
:10419000B05458460DF042FE04F5A56318460F933F
:1041A000FFF7AAFE04F5A863C4F828651846C4F80A
:1041B0003C550CEE903AFEF7EDFC04F5B163184661
:1041C0000DEE103AFEF7E6FC04F5BA6304F5C36998
:1041D00018460DEE903AFEF7DDFC48460DF01EFE47
:1041E00004F28C6304F2A46A18460E93FFF784FE6F
:1041F000C4F88C66C4F8A05650460DF00FFE04F5C6
:10420000E36318460D93FFF777FE04F5E663C4F801
:1042100018671846C4F82C570EEE103AFEF7BAFC91
:1042200004F5EF6318460EEE903AFEF7B3FC04F582
:10423000F86318460FEE103AFEF7ACFC04F60803DC
:1042400018460FEE903AFEF7A5FC04F505631846F4
:104250000393FEF79FFC04F6980318460493FEF7B9
:1042600099FC04F50E6318460593FEF793FC04F6DB
:10427000281318460693FEF78DFC04F517631846BD
:104280000793FFF76FFE04F6BC1318460A93FFF777
:1042900069FE04F6082318460893FFF763FE04F648
:1042A000542318460B93FFF75DFE04F52A63184666
:1042B0000993FFF763FE5D4BC4F8903B5C4BC4F879
:1042C000983BF0264FF4965104F53A60C4F8944BAD
:1042D000C4F89C5B10F0A8FC1BEE900A00964FF40B
:1042E000A0732A462946FEF749FA4FF07F430C98FF
:1042F000A36600964FF4A0732A462946FEF73EFABD
:104300004C4BC4F894300D221CEE100A57210DF1CD
:104310005808FEF7D0FB4FF07F4340461CEE101AC2
:10432000C4F8C830A4F8CC500FF0D2FE98E80700CB
:1043300004F1D40383E807003F4B1C930F2631237D
:104340001CEE100A1CA9ADF8743010F007FA40F208
:10435000471318EE100A009632222946FEF70EFA8D
:104360004FF07F421599C4F8682118EE100A0DF03D
:1043700065FA18EE100A2A462946FFF759FE2A4622
:1043800018EE100A40F23F11FFF756FE18EE100A21
:104390000521FFF755FE18EE100A01210DF07AFEF7
:1043A00040F2431318EE900A009650226FF002017B
:1043B000FEF7E4F94FF07F421499C4F8F42118EEA7
:1043C000900A0DF03BFA18EE900A2A462946FFF7AC
:1043D0002FFE2A4618EE900A40F23F11FFF72CFEFE
:1043E00018EE900A0521FFF72BFE18EE900A012126
:1043F0000DF050FE40F2471319EE100A00966E229F
:104400002946FEF7BBF94FF07F421399C4F880228A
:1044100019EE100A0DF012FA19EE100A2A46294672
:104420000CE000BF709E0208B4BB0208589E020850
:10443000DF3E0008DEDEDEFFD0910208FFF7F8FD68
:104440002A4619EE100A40F23F11FFF7F5FD19EE6A
:10445000100A0521FFF7F4FD19EE100A01210DF0F5
:1044600019FE4FF4A07319EE900A00968C2229468B
:10447000FEF784F94FF07F42394619EE900AC4F8EE
:104480000C230DF0DBF919EE900A2A462946FFF7B6
:10449000CFFD2A4619EE900A40F23F11FFF7CCFDFE
:1044A00019EE900A0521FFF7CBFD19EE900A0121C4
:1044B0000DF0F0FD4FF4A0731AEE100A0096AA2238
:1044C0002946FEF75BF94FF07F421299C4F8982312
:1044D0001AEE100A0DF0B2F91AEE100A2A46294611
:1044E000FFF7A6FD2A461AEE100A40F23F11FFF729
:1044F000A3FD1AEE100A0521FFF7A2FD1AEE100A1D
:1045000001210DF0C7FD4FF4A0731AEE900A00963A
:10451000C8222946FEF732F94FF07F421199C4F8BC
:1045200024241AEE900A0DF089F91AEE900A2A4610
:104530002946FFF77DFD2A461AEE900A40F23F1108
:10454000FFF77AFD1AEE900A0521FFF779FD96270D
:104550001AEE900A01210DF09DFD33461BEE100A64
:10456000009732222946FEF709F94FF07F42109951
:10457000C4F8B0241BEE100A0DF060F91BEE100A0F
:104580002A462946FFF754FDB4221BEE100A29469D
:10459000FFF752FD1BEE100A0521FFF751FD1BEE40
:1045A000100A01210DF076FD3346009732224FF4B8
:1045B0009F715846FEF7E2F84FF07F420F99C4F81A
:1045C0003C2558460DF03AF92A4629465846FFF749
:1045D0002FFDB42229465846FFF72EFD05215846E7
:1045E000FFF72EFD012158460DF054FD1CEE900AF8
:1045F00035220721FEF75FFAD84AC4F870254046F5
:104600001CEE901AA4F874550FF062FD98E80700AC
:1046100004F27C5383E80700D14B1C931CEE900AF4
:1046200030231CA9ADF8743010F098F839461DEE0F
:10463000100A3522FEF73FFAC84AC4F8B8254046AA
:104640001DEE101AA4F8BC550FF042FD98E80700C3
:1046500004F2C45383E80700C14B1C931DEE100AFB
:104660002F231CA9ADF8743010F078F81DEE900AD5
:10467000352240F20911FEF71EFAB84AC4F80026A6
:1046800040461DEE901AA4F804560FF021FD98E85C
:10469000070004F20C6383E80700B14B1C931DEE86
:1046A000900A2E231CA9ADF8743010F057F8334649
:1046B000009732227D214846FEF760F84FF07F4296
:1046C0000E99C4F8A02648460DF0B8F82A462946A7
:1046D0004846FFF7ADFCB42229464846FFF7ACFC3C
:1046E00005214846FFF7ACFC012148460DF0D2FCFD
:1046F000334600973222FA215046FEF73FF84FF03A
:104700007F420D99C4F82C2750460DF097F82A46A1
:1047100029465046FFF78CFCB42229465046FFF745
:104720008BFC05215046FFF78BFC012150468D4E36
:104730008B4F0DF0AFFC53221EEE100A0721FEF73F
:10474000BAF940461EEE101AC4F86067A4F8645720
:104750000FF0BEFC98E8070004F26C7383E80700D2
:104760002D231EEE100A1CA9ADF874301C970FF013
:10477000F5FFAD221EEE900A0721FEF79CF9404698
:104780001EEE901AC4F8A867A4F8AC570FF0A0FC6E
:1047900098E8070004F2B47383E807004FF02C0395
:1047A0001EEE900A1CA9ADF874301C970FF0D6FFCE
:1047B00053221FEE100A4FF48B71FEF77CF940462E
:1047C0001FEE101AC4F8F067A4F8F4570FF080FC3D
:1047D00098E8070004F2FC7383E807002B231FEE20
:1047E000100A1CA9ADF874301C970FF0B7FFAD226A
:1047F0001FEE900A40F21111FEF75DF940461FEEE0
:10480000901AC4F83868A4F83C580FF061FC98E896
:10481000070004F6440383E807002A231FEE900AEA
:104820001CA9ADF874301C970FF098FF7122039803
:104830000721FEF740F940460399C4F88068A4F8C0
:1048400084580FF045FC98E8070004F68C0383E8D1
:10485000070029230398ADF874301CA91C970FF0AA
:104860007DFF8F2204980721FEF725F94046049921
:10487000C4F8C868A4F8CC580FF02AFC98E80700E0
:1048800004F6D40383E807001C9704981CA9282782
:10489000ADF874700FF062FF712205984FF48B71C0
:1048A000FEF709F940460599C4F81069A4F81459AF
:1048B0000FF00EFC98E8070004F61C1383E80700CD
:1048C000274B05981C931CA92723ADF874300FF0D3
:1048D00045FF8F2206984FF48B71FEF7ECF84046A7
:1048E0000699C4F85869A4F85C590FF0F1FB98E8F0
:1048F000070004F6641383E80700194B06981C931D
:104900001CA92623ADF874300FF028FF0798DFF8B4
:104910006C807122B721FEF7CEF84FF0FF33C4F858
:10492000B03904F648330D93D8F80030C4F8A069C4
:10493000A4F8A459C4F8AC59C4F8B4592BB90A4B1B
:104940000A4AAE210A4822F0B3FD0A4B1B88212BEC
:1049500016D8094B054AAF21F4E700BF647800FF81
:10496000D0910208C95110FF68900208AA9002086D
:10497000D8900208804C01201F9102087C4C012035
:10498000B14B2121186802F015FAB04A03460A21FA
:104990000D9814F052FF0D990798C4F8B8190FF04C
:1049A000BDFEAB4B07981C931CA92523ADF87430B2
:1049B0000FF0D4FE17230093842176230A98542203
:1049C000FDF7DCFE4FF0FF31D8F80030C4F8FC19D9
:1049D00004F65C31C4F8EC69A4F8F059C4F8F8594D
:1049E000C4F8005A0D91002BA9D09A490B881F2BAF
:1049F000AFD9954A1F21106802F0DCF9934A0346AB
:104A000010210D9814F019FF0D98914BC4F8040A69
:104A10001CA801461C930A982423ADF874300FF0AB
:104A20009DFE08988F22B721FEF745F84FF0FF3022
:104A3000D8F80030C4F8480A04F67C30C4F8386A64
:104A4000A4F83C5AC4F8445AC4F84C5A0D90002BB0
:104A50003FF475AF7F490B88202B7FF67AAF7A4AF7
:104A60002021106802F0A6F90A210346774A0D9822
:104A700014F0E3FE0D9AC4F8502A08980FF04EFE89
:104A8000734B08981C931CA92323ADF874300FF0C6
:104A900065FE0B98AD22BE21FEF70DF84FF0FF32F8
:104AA0006B4B0B98A4F8885AC4F8905AC4F8942A0F
:104AB000C4F8985A1C931CA92223C4F8846AADF840
:104AC00074300FF04BFE2C232A462946009304F63F
:104AD000D4203B46FDF752FE0523A4F8043B5E4B71
:104AE000C4F8083B5D4BC4F80C3B4FF07F43C4F85F
:104AF000103B5B4B0998C4F8143BFDF736FF0223CB
:104B00000998ADF86C301CAA1BA9ADF87030FDF700
:104B1000DFFF544BC4F8203B2C232A46099800930E
:104B20004FF48B713B46FDF729FE251D04F53963D3
:104B3000C4F8D03A1BEE901A28460AF0A7FC0C994C
:104B400028460AF0A3FC1CEE101A28460AF09EFC28
:104B500018EE101A28460AF099FC18EE901A28460A
:104B60000AF094FC19EE101A28460AF08FFC19EE90
:104B7000901A28460AF08AFC1AEE101A28460AF003
:104B800085FC1AEE901A28460AF080FC1BEE101ADB
:104B900028460AF07BFC594628460AF077FC1CEEB2
:104BA000901A28460AF072FC1DEE101A28460AF0E8
:104BB0006DFC1DEE901A28460AF068FC494628460E
:104BC0000AF064FC514628460AF060FC1EEE101AFA
:104BD00028460AF05BFC1EEE901A28460AF056FCA6
:104BE0001FEE101A28460AF051FC1FEE901A2846B4
:104BF0000AF04CFC039928460AF048FC0499284620
:104C00000AF044FC059928460AF040FC069928461B
:104C10000AF03CFC079928460AF038FC0A99284615
:104C20000AF034FC089928460AF030FC0B99284613
:104C30000AF02CFC284609990AF028FC20461FB0EF
:104C4000BDEC108BBDE8F08F884C01205D9102080F
:104C5000D0910208804C0120FCFCFCFFABA9A4FF12
:104C6000424242FF0A00060070477047704730B466
:104C7000C26844685510034604EB6200D20748BF7F
:104C800062599B6830BC48BFD358184743682BB162
:104C900083682BB9C06800F0010070471846704760
:104CA0000120704710B51021044622F0D2FB2046A7
:104CB00010BD10B540F27441044622F0CAFB2046F4
:104CC00010BD08B500F19803994205D111F00CFD13
:104CD000BDE80840FEF7F2BC00F5A073994205D18B
:104CE00011F002FDBDE80840FEF708BD00F5F473C1
:104CF000994205D111F0F8FCBDE80840FEF7EEBC82
:104D000000F52470814205D111F0EEFCBDE80840A9
:104D1000FEF704BD08BD0000074A02600022C0E99A
:104D20000122C0E90322C0E90522C0E907224FF4AD
:104D300080728284704700BF24CD020838B52622D5
:104D400004460D46002122F039FD2046FFF7E4FF1E
:104D5000064B23602B88E384FF23204684F8283009
:104D600029460FF0EDFE204638BD00BF78C8020886
:104D700010B40367019B436703685DF8044BD3F8E5
:104D80008C30C0E91A1218472DE9F04F2DED068B33
:104D9000044689B012F0FEFF22460025DD4BE56394
:104DA00042F8403B104608EE102AFDF7DFFE04F102
:104DB0006C0318460AEE103AFDF7D8FE04F198038A
:104DC000184608EE903AFFF7D9F804F5A073184694
:104DD00009EE103AFFF7D2F804F5F47304F52479DC
:104DE000184609EE903A04F54E7AFFF7C7F84846A0
:104DF000FFF7C4F806A94FF6FF735046ADF8183018
:104E0000FFF79CFFC44BC4F838334FF0FF32012347
:104E1000C4E9DA2304F55D7304F5687BC4F86453D0
:104E200084F87053184604F573780AEE903AFDF74B
:104E30009DFE4FF0FF3306A95846ADF818300EF02E
:104E400089FE40460AF0FEF8B44BC4F86434F026FC
:104E5000B34BC4F86C3418EE100AC4F870540096C2
:104E60002A462946C4F868444FF4A073FDF786FC2F
:104E70004FF07F431AEE100AA36600962A46294691
:104E80004FF4A073FDF77AFC4226A64BA64FC4F858
:104E9000943000962A46294604F1CC004923FDF7B8
:104EA0006DFC4FF0030318EE900AA4F8FC30009755
:104EB0003B469E494FF0FF32FFF75AFF092318EE99
:104EC000900A06AA05A9ADF81430ADF81830FDF720
:104ED000FFFD974BC4F8183118EE900A009649234D
:104EE00024228F21FDF74AFC04F264420392C4F8A5
:104EF000C82000962A46294604F5BA704923FDF7D2
:104F00003DFC4FF0030319EE100AA4F8A4310097FA
:104F10003B4686494FF0FF32FFF72AFF0B2319EE7D
:104F2000100A06AA05A9ADF81430ADF81830FDF73F
:104F3000CFFD804BC4F8C03119EE100A009649230A
:104F400078228F21FDF71AFC039AC4F8702100968D
:104F50002A46294604F507704923FDF70FFC4FF058
:104F6000030219EE900AA4F84C2200973B466F49C1
:104F70004FF0FF32FFF7FCFE06A9072319EE900A57
:104F80000A4605A9ADF81430ADF81830FDF7A0FDBC
:104F9000684BC4F8683219EE900A0096492324221F
:104FA0003121FDF7EBFB039BC4F8183200962A462B
:104FB000294604F531704923FDF7E0FB4FF0030269
:104FC0003B46A4F8F4220097484658494FF0FF3278
:104FD000FFF7CEFE0A2706AA05A94846ADF81470C9
:104FE000ADF81870FDF774FD534BC4F810330096FC
:104FF0004846492378223121FDF7C0FB039BC4F8C2
:10500000C0325046C0224FF48871FDF754FD0F2284
:1050100050460E210EF04CFD132650461E210EF078
:105020005AFD2A461AEE900A294600964FF4A073BC
:10503000FDF7A4FB414BC4F89C3306A90F23584647
:10504000ADF818300FF07CFD2A4612232946584649
:105050000096FDF793FB294658460EF042FD1123BA
:105060000222009340463A234FF48071FDF786FBFD
:1050700040464FF07F4109F0E2FE314B069306A90E
:1050800033234046ADF81C3009F0E7FE40460121CD
:105090000AF026F84FF003033A4684F8FB3339460A
:1050A0002B464046251D0AF01EF818EE101A284619
:1050B0000AF0ECF91AEE101A28460AF0E7F918EE91
:1050C000901A28460AF0E2F919EE101A28460AF05A
:1050D000DDF919EE901A28460AF0D8F94946284613
:1050E0000AF0D4F9514628460AF0D0F91AEE901A7F
:1050F00028460AF0CBF9594628460AF0C7F928464F
:1051000041460AF0C3F9204609B0BDEC068BBDE864
:10511000F08F00BFBC9E020894C50208A49E02083E
:10512000C34C0008EAFF05FF1E3D20FFFCFAFAFF12
:10513000080007000700030005000200C2C7A3FF24
:10514000D091020880F82C10704710B40368046BEB
:10515000D3F8A430624361435DF8044B1847D0EDA7
:105160000C7A0368F8EEE77AD3F8A43020EE270A29
:10517000B5EEC00AF1EE10FA17DBB6EE007A30EEAB
:10518000070ABDEEC07A17EE101A60EEA70AF5EE18
:10519000C00AF1EE10FA1CDBF6EE007A70EEA70AF8
:1051A000FDEEE07A17EE902A1847BDEEC07AF8EED1
:1051B000C76A17EE102A30EE660AF7EE086A30EE7C
:1051C000260A511EBDEEC00A10EE102A0A441146EE
:1051D000DBE7FDEEE07AB8EEE77A17EE902A70EEA4
:1051E000C70AB7EE087A70EE870A013AFDEEE00AC8
:1051F00010EE90CA94446246D6E710B40368046B7C
:10520000D3F8B03062435DF8044B1847D0ED0C7A08
:105210000368F8EEE77AD3F8B03027EE800AB5EEEF
:10522000C00AF1EE10FA08DBF6EE007A30EE270A3B
:10523000FDEEC07A17EE902A1847FDEEC07AB8EE60
:10524000E77A17EE902A30EE470AB7EE087A30EE8A
:10525000070A013ABDEEC00A10EE10CA9444624635
:10526000EAE710B40368446BD3F8BC30624361438F
:105270005DF8044B1847D0ED0D7A0368F8EEE77A35
:10528000D3F8BC3020EE270AB5EEC00AF1EE10FAD2
:1052900017DBB6EE007A30EE070ABDEEC07A17EEE5
:1052A000101A60EEA70AF5EEC00AF1EE10FA1CDB48
:1052B000F6EE007A70EEA70AFDEEE07A17EE902A7D
:1052C0001847BDEEC07AF8EEC76A17EE102A30EE26
:1052D000660AF7EE086A30EE260A511EBDEEC00AD5
:1052E00010EE102A0A441146DBE7FDEEE07AB8EE34
:1052F000E77A17EE902A70EEC70AB7EE087A70EEDA
:10530000870A013AFDEEE00A10EE90CA9444624624
:10531000D6E710B40368446BD3F8C03062435DF83D
:10532000044B1847D0ED0D7A0368F8EEE77AD3F80E
:10533000C03027EE800AB5EEC00AF1EE10FA08DBA5
:10534000F6EE007A30EE270AFDEEC07A17EE902ACC
:105350001847FDEEC07AB8EEE77A17EE902A30EEE5
:10536000470AB7EE087A30EE070A013ABDEEC00AE6
:1053700010EE10CA94446246EAE7D0F82C31026B72
:10538000002B07DB02EB430393FBF2F000EBD07042
:10539000401070476FF0010000FB0320013890FBC4
:1053A000F2F000EBD070401040427047D0ED4B7AE5
:1053B000B8EEE70AD0ED0C7AF8EEE77A80EE270A2D
:1053C0007047D0F82C017047D0F83031026B002BB9
:1053D00007DB02EB430393FBF2F000EBD0704010CD
:1053E00070476FF0010000FB0320013890FBF2F0E2
:1053F00000EBD070401040427047D0ED4C7AB8EED0
:10540000E70AD0ED0C7AF8EEE77A80EE270A7047CB
:10541000D0F830017047D0F83431426B002B07DBF5
:1054200002EB430393FBF2F000EBD07040107047A7
:105430006FF0010000FB0320013890FBF2F000EB5D
:10544000D070401040427047D0ED4D7AB8EEE70A78
:10545000D0ED0D7AF8EEE77A80EE270A7047D0F8A3
:1054600034017047D0F83831426B002B07DB02EB78
:10547000430393FBF2F000EBD070401070476FF0E5
:10548000010000FB0320013890FBF2F000EBD0702C
:10549000401040427047D0ED4E7AB8EEE70AD0EDAA
:1054A0000D7AF8EEE77A80EE270A7047D0F83801D7
:1054B000704770B503680446D3F888300D46164629
:1054C00098472368324629462046D3F89030BDE8F5
:1054D000704018470368D3F8943018470368D3F82E
:1054E000D43018470368D3F8E03018470368002A1F
:1054F00010B4D3F8A430046B0EDB04EB420292FB31
:10550000F4F101EBD1714910B0F91E215DF8044BA3
:10551000013A0A44494218476FF0010101FB024178
:10552000013991FBF4F101EBD17149104942EBE7EC
:105530000368D3F83C311847026B03685143D3F832
:10554000483118470368D3F844311847D0ED0C7A36
:105550000368F8EEE77AD3F8483127EE800AB5EE13
:10556000C00AF1EE10FA08DBF6EE007A30EE270AF8
:10557000FDEEC07A17EE901A1847FDEEC07AB8EE2D
:10558000E77A17EE902A30EE470AB7EE087A30EE47
:10559000070A511EBDEEC00A10EE102A0A44114639
:1055A000EAE7C0F83C1170470368D3F85031184758
:1055B000036810B5D3F85C31044698470028236B84
:1055C00007DB03EB400090FBF3F000EBD0704010E2
:1055D00010BD6FF0010202FB0030013890FBF3F0C8
:1055E00000EBD07040104042F2E70368D3F8583126
:1055F0001847036810B5D3F85C310446984707EEA6
:10560000900AB8EEE70AD4ED0C7AF8EEE77A80EE6D
:10561000270A10BDD0F83C017047026B0368514364
:10562000D3F868311847D0ED0C7A0368F8EEE77AC2
:10563000D3F8683127EE800AB5EEC00AF1EE10FA11
:1056400008DBF6EE007A30EE270AFDEEC07A17EEA0
:10565000901A1847FDEEC07AB8EEE77A17EE902A56
:1056600030EE470AB7EE087A30EE070A511EBDEE5B
:10567000C00A10EE102A0A441146EAE7C0F84011A9
:105680007047036810B5D3F8743104469847002872
:10569000236B07DB03EB400090FBF3F000EBD070D3
:1056A000401010BD6FF0010202FB0030013890FB8A
:1056B000F3F000EBD07040104042F2E7036810B501
:1056C000D3F874310446984707EE900AB8EEE70A1B
:1056D000D4ED0C7AF8EEE77A80EE270A10BDD0F808
:1056E000400170470368026BD3F88431002910B57C
:1056F00004460EDB02EB410191FBF2F101EBD171AB
:10570000491009B220469847D4E94F2302FB0030E4
:1057100010BD6FF0010000FB0121013991FBF2F196
:1057200001EBD17149104942EBE7006B7047406BC8
:1057300070470368D3F8483118470368D3F85C31E1
:105740001847026B03685143D3F8143118470368B4
:1057500070B5D3F81851D3F88031D0F844610446BD
:1057600098472B4656F820102046BDE87040184751
:10577000B0F91C21B0F91E31934207DBB0F94C316E
:10578000194491FBF2F002FB101109B20846704770
:105790004801704780F82610704790F8260070473F
:1057A00001637047006B7047012070477047704776
:1057B000006C18B10368D3F884301847704730B5CF
:1057C000B2F81A11B2F91441B2F94050B2F84220BD
:1057D00044802144521A002101808580C28030BD5E
:1057E00010B54280BDF90840BDF90C2004808280CC
:1057F000C38010BD0B680846D3F8D43018470B6837
:105800000846D3F8E0301847B1F914017047B1F8F1
:105810001401B1F81A310344B1F84200C01A00B2C1
:105820007047B1F916017047B1F81601B1F8183197
:105830000344B1F84000C01A00B270470B68084634
:10584000D3F8143111461847B2F8181130B5B2F92F
:10585000165105806C18B2F84010B2F94220C2808F
:10586000091B00244480818030BD02808380BDF903
:105870000020BDF904304280C38070470B680846A1
:10588000D3F8EC3018470B680846D3F8F8301847BF
:10589000B1F916017047B1F81601B1F81831034497
:1058A000B1F84000C01A00B27047B1F91401704756
:1058B000B1F81401B1F81A310344B1F84200C01A2A
:1058C00000B270470B680846D3F8183111461847E4
:1058D00070477047704770477047704730B4C26870
:1058E00044685510034604EB6200D20748BF625972
:1058F0009B6830BC48BFD358184743682BB18368B6
:105900002BB9C06800F001007047184670470120AD
:10591000704710B54421044621F09BFD204610BD80
:1059200010B54421044621F094FD204610BD10B569
:105930004FF43871044621F08CFD204610BD10B59F
:105940001021044621F085FD204610BD10B541F61A
:105950001001044621F07DFD204610BD90F82C304A
:105960000BB109F04FBD704713B503460846D3E9A4
:105970000D1403680191D3F88C30984701990246C1
:10598000204602B0BDE810400DF04CB813B50346F8
:105990000846D3E90D1403680191D3F89430984771
:1059A00001990246204602B0BDE810400DF03AB819
:1059B0000A1E10B503DBB0F91E41944206DC084B09
:1059C000084A094840F2316121F072FD0368D0F8BD
:1059D0004441D3F88031984754F8200010BD00BFEF
:1059E000E89E02080B9F02085A9F02080B1E10B582
:1059F000044603DBB0F91E219A4206DC074B084A35
:105A0000084840F22B6121F053FD0368D3F884313C
:105A10009847D4E94F2302FB003010BDE89E0208EE
:105A2000B79F02085A9F020800F59360884208B5A4
:105A300005D110F059FEBDE80840FDF72FBE08BDA6
:105A400037B501AB154611F0EFFF00284FEA4014BF
:105A500001992A464FF0200004DB12F004F820449C
:105A600003B030BD11F0FFFF201AF9E770B5B0F9AF
:105A70001441B0F81A516319B0F84250ED1AD0E948
:105A80004D320E462DB2D21A691EF01AFFF7D8FF1A
:105A90002C44013CC0EB441070BD38B504460846A8
:105AA000B4F81831B4F816110B44B4F84010D4E926
:105AB0004B52C91A09B2521B0139401BFFF7C0FFF4
:105AC000B4F9163100EB431038BD00002DE9F04F5A
:105AD0002DED048B044687B0A146002512F05AF93B
